:1000000012C02CC02BC02AC029C028C027C026C0BF
:1000100025C093C023C022C021C020C006C11EC07D
:100020001DC01CC01BC011241FBECFE5D4E0DEBF25
:10003000CDBF10E0A0E6B0E0E8E5F6E002C0059034
:100040000D92A437B107D9F720E0A4E7B0E001C0D2
:100050001D92A238B207E1F759D1FCC2D1CFCF939C
:10006000DF93AC01EC01D695C795D695C795D6958B
:10007000C7959E01A5ECB0E2E1D2FC01F295E295B4
:10008000EF70EF27FF70EF27F0938100E09380007F
:1000900028EE33E0E29FC001E39F900DF29F900DA8
:1000A00011249A01281B390B3695279536952795EB
:1000B000ABE7B4E1C3D29695879590937F00809388
:1000C0007E009A013695279536952795B7D29C01E3
:1000D0003695279564E6629FC001639F900D1124B9
:1000E0009A01281B390BADECBCECA8D296958795EC
:1000F000969587959695879590937D0080937C0043
:100100009A019CD296958795969587959695879511
:100110009C01220F331F880F991F880F991F880F8A
:10012000991F820F931F9A01281B390B30937B0074
:1001300020937A00DF91CF9108951F920F920FB60E
:100140000F9211248F939F93EF93FF9380917800E8
:1001500090917900019690937900809378000597AB
:1001600034F081E090E09093790080937800809162
:100170007800909179008130910589F488B38E6080
:1001800088BB88B38E7F88BBE0918000F0918100AE
:10019000EE0FFF1FE05AFF4F808182BB3DC08230CF
:1001A0009105A1F488B38D6088BB88B38D7F88BB2F
:1001B000E0917E00F0917F00EE0FFF1FE05AFF4FAD
:1001C000808182BB82B3806882BB26C08330910568
:1001D00089F488B38B6088BB88B38B7F88BBE09140
:1001E0007C00F0917D00EE0FFF1FE05AFF4F8081F1
:1001F00082BB12C0049781F488B3876088BB88B340
:10020000877F88BBE0917A00F0917B00EE0FFF1FA3
:10021000E05AFF4F808182BBFF91EF919F918F91B8
:100220000F900FBE0F901F9018951F920F920FB650
:100230000F9211242F933F934F935F936F937F936C
:100240008F939F93AF93BF93EF93FF9364B175B177
:1002500080E090E002D120E030E040EA50E48BD131
:1002600020E030E048EC52E486D120E030EC4FE76B
:1002700054E45FD020E030E040E850E47CD160936B
:100280007400709375008093760090937700B9D0D6
:10029000CB01E5DEFF91EF91BF91AF919F918F91DF
:1002A0007F916F915F914F913F912F910F900FBE72
:1002B0000F901F90189587B3836087BB88B38E7F9C
:1002C00088BB84B3887084BB86B1806886B986B1E8
:1002D000806286B986B1836086B986B18B7F86B924
:1002E00087B18F7787B987B1806487B987B18F7DF0
:1002F00087B987B1837F87B987B1836087B986B1B2
:10030000886086B986B1806486B908958FEF81BB15
:1003100012BA87B38F6087BB88B38F6088BB83B7FF
:10032000826083BF12BE89B7816089BFC4DF7894C1
:10033000FFCF0CD0E6C0DED040F0D5D030F021F4B5
:100340005F3F19F0C7C0511110C1CAC0EBD098F37C
:100350009923C9F35523B1F3951B550BBB27AA2746
:1003600062177307840738F09F5F5F4F220F331FB8
:10037000441FAA1FA9F333D00E2E3AF0E0E830D084
:1003800091505040E695001CCAF729D0FE2F27D087
:10039000660F771F881FBB1F261737074807AB0755
:1003A000B0E809F0BB0B802DBF01FF2793585F4FCA
:1003B0002AF09E3F510568F08DC0D7C05F3FECF337
:1003C000983EDCF3869577956795B795F7959F5F8F
:1003D000C9F7880F911D9695879597F90895E1E0E3
:1003E000660F771F881FBB1F621773078407BA0742
:1003F00020F0621B730B840BBA0BEE1F88F7E0959D
:10040000089598D088F09F5790F0B92F9927B75149
:10041000A0F0D1F0660F771F881F991F1AF0BA95C8
:10042000C9F712C0B13081F09FD0B1E008959CC0EF
:10043000672F782F8827B85F39F0B93FCCF38695BE
:1004400077956795B395D9F73EF49095809570951B
:1004500061957F4F8F4F9F4F0895E89409C097FB98
:100460003EF490958095709561957F4F8F4F9F4F8B
:100470009923A9F0F92F96E9BB279395F6958795CF
:1004800077956795B795F111F8CFFAF4BB0F11F492
:1004900060FF1BC06F5F7F4F8F4F9F4F16C0882339
:1004A00011F096E911C0772321F09EE8872F762F6F
:1004B00005C0662371F096E8862F70E060E02AF0B0
:1004C0009A95660F771F881FDAF7880F969587959C
:1004D00097F9089597F99F6780E870E060E00895C4
:1004E0009FEF80EC089500240A941616170618064C
:1004F0000906089500240A94121613061406050628
:100500000895092E0394000C11F4882352F0BB0FB8
:1005100040F4BF2B11F460FF04C06F5F7F4F8F4F1B
:100520009F4F089557FD9058440F551F59F05F3F56
:1005300071F04795880F97FB991F61F09F3F79F005
:1005400087950895121613061406551FF2CF469587
:10055000F1DF08C0161617061806991FF1CF869509
:100560007105610508940895E894BB2766277727ED
:10057000CB0197F908950BD0C4CFB5DF28F0BADFCF
:1005800018F0952309F0A6CFABCF1124EECFCADF28
:10059000A0F3959FD1F3950F50E0551F629FF00196
:1005A000729FBB27F00DB11D639FAA27F00DB11DEF
:1005B000AA1F649F6627B00DA11D661F829F222778
:1005C000B00DA11D621F739FB00DA11D621F839FFF
:1005D000A00D611D221F749F3327A00D611D231FD5
:1005E000849F600D211D822F762F6A2F11249F5723
:1005F00050408AF0E1F088234AF0EE0FFF1FBB1F46
:10060000661F771F881F91505040A9F79E3F5105E4
:1006100070F060CFAACF5F3FECF3983EDCF3869595
:1006200077956795B795F795E7959F5FC1F7FE2B8F
:10063000880F911D9695879597F90895A29FB0010F
:10064000B39FC001A39F01D0B29F700D811D1124E3
:08065000911D0895F894FFCFFD
:100658003F0006005B004F0066006D007D0007004C
:040668007F006F00A0
:00000001FF
